:100000000C9462000C948A000C948A000C948A0070
:100010000C948A000C948A000C948A000C948A0038
:100020000C948A000C948A000C948A000C948A0028
:100030000C948A000C948A000C948A000C948A0018
:100040000C9474010C948A000C948A000C948A001D
:100050000C948A000C948A000C948A000C948A00F8
:100060000C948A000C948A000000000023002600F3
:10007000290000000000240027002A0000000000E2
:10008000250028002B0004040404040404040202D4
:100090000202020203030303030301020408102007
:1000A0004080010204081020010204081020000012
:1000B0000008000201000003040700000000000027
:1000C0000000A40311241FBECFEFD8E0DEBFCDBFD8
:1000D00011E0A0E0B1E0E4ECF9E002C005900D927F
:1000E000AC30B107D9F721E0ACE0B1E001C01D921E
:1000F000AE31B207E1F710E0C2E6D0E004C02197CC
:10010000FE010E94B003C136D107C9F70E94030265
:100110000C94E0040C94000090E0FC01E255FF4FC9
:100120002491FC01E656FF4F3491FC01EA57FF4F42
:10013000E491EE2309F43CC0222339F1233091F0FD
:1001400038F42130A9F0223001F584B58F7D12C03A
:10015000273091F02830A1F02430B9F4809180004C
:100160008F7D03C0809180008F77809380000DC0C9
:1001700084B58F7784BD09C08091B0008F7703C0AC
:100180008091B0008F7D8093B000F0E0EE0FFF1FF4
:10019000E458FF4FA591B4919FB7F894611104C042
:1001A0008C913095382302C0EC913E2B3C939FBF3D
:1001B0000895CF93DF9390E0FC01E656FF4F249122
:1001C000FC01EA57FF4F8491882361F190E0880F8A
:1001D000991FFC01EE58FF4FC591D491FC01E458E2
:1001E000FF4FA591B491611109C09FB7F894888120
:1001F000209582238883EC912E230BC0623061F41A
:100200009FB7F8948881322F309583238883EC91AF
:100210002E2B2C939FBF06C08FB7F894E8812E2B0E
:1002200028838FBFDF91CF9108951F93CF93DF93E2
:10023000182FEB0161E00E94D900209711F460E0D3
:1002400004C0CF3FD10539F461E0812FDF91CF9118
:100250001F910C948C00E12FF0E0E255FF4FE491E8
:10026000E330F9F048F4E130B9F0E230A1F584B5BB
:10027000806284BDC8BD34C0E730E9F0E83019F1D0
:10028000E43049F580918000806280938000D093B3
:100290008B00C0938A0024C084B5806884BDC7BD2C
:1002A0001FC080918000806880938000D093890077
:1002B000C093880015C08091B00080688093B00022
:1002C000C093B3000DC08091B00080628093B000F5
:1002D000C093B40005C0C038D1050CF0B5CFAFCF86
:1002E000DF91CF911F9108951F920F920FB60F9239
:1002F00011242F933F938F939F93AF93BF9380913C
:100300001A0190911B01A0911C01B0911D01309127
:10031000190123E0230F2D3720F40196A11DB11DF3
:1003200005C026E8230F0296A11DB11D20931901D7
:1003300080931A0190931B01A0931C01B0931D019F
:100340008091150190911601A0911701B0911801AB
:100350000196A11DB11D8093150190931601A093E4
:100360001701B0931801BF91AF919F918F913F9169
:100370002F910F900FBE0F901F901895CF92DF9284
:10038000EF92FF920F931F93E82FF92F05C00150B2
:1003900011092109310961F1908196239417B9F36C
:1003A00005C0015011092109310911F190819623ED
:1003B0009413F7CFC12CD12CE12CF12C0AC08FEF74
:1003C000C81AD80AE80AF80A0C151D052E053F05BB
:1003D00079F080818623841791F36C2D7D2D8E2DED
:1003E0009F2D1F910F91FF90EF90DF90CF90089578
:1003F00060E070E080E090E01F910F91FF90EF903F
:10040000DF90CF900895789484B5826084BD84B5E0
:10041000816084BD85B5826085BD85B5816085BDFF
:1004200080916E00816080936E00109281008091B7
:10043000810082608093810080918100816080933F
:100440008100809180008160809380008091B10064
:1004500084608093B1008091B00081608093B0008F
:1004600080917A00846080937A0080917A00826023
:1004700080937A0080917A00816080937A008091E5
:100480007A00806880937A001092C10000E011E049
:1004900074E0E72E71E0F72EC8E0D1E061E08991C9
:1004A0000E94D90060E0F70181917F010E94D9008C
:1004B00060E0F80181918F010E94D900F1E0CC3019
:1004C000DF0761F763E0462E512C34E0832E912C38
:1004D00066246A94712C50E0252E50E0352E8FB79B
:1004E000F89440911A0150911B0160911C01709188
:1004F0001D018FBF10921401109213019CE0E92E90
:1005000091E0F92E670124E0A22E21E0B22EC8E08E
:10051000D1E0199160E0812F0E948C00C201019707
:10052000F1F761E0812F0E948C0083E290E0019757
:10053000F1F760E0812F0E948C00F50181915F014D
:1005400090E0FC01E656FF4F6491FC01EA57FF4F33
:10055000E491F0E0EE0FFF1FE859FF4F8591949171
:1005600000E412E42FE030E0462F0E94BE01611546
:1005700071058105910549F0DC01CB010196A11DB2
:10058000B11DBC01CD019F7003C060E070E0CB01E4
:100590000E94E50328E23EE74CE05DE30E944B0445
:1005A00020E030E040E05FE30E944B040E94B6038D
:1005B000F60161936F01F1E0CC30DF0709F0A9CFBC
:1005C00080910C01823328F480910F01823308F46A
:1005D00046C080E090E0F70131917F01E82FF0E024
:1005E000E45FFE4F2081321708F4892F9F5F94301B
:1005F00091F7E82FF0E0E45FFE4F9081953148F5E8
:10060000811105C0909212018092110128C083309F
:1006100019F483E090E016C0813061F480910E01FE
:10062000843128F4109212011092110118C0E1E0F7
:10063000F0E011C0823059F480910F01843190F3C1
:1006400082E090E0909312018093110108C0843001
:1006500031F4E5E0F0E0F0931201E0931101FFEFD7
:10066000F0931301C0911101D0911201C230D10554
:10067000C9F040F4209781F0C130D10509F04AC09B
:1006800060E00BC0C430D10529F0B0F0C530D10511
:10069000E9F040C061E02FC061E086E00E948C007C
:1006A00060E02DC061E086E00E948C0060E087E0A1
:1006B0000E948C0060E027C061E086E00E948C0010
:1006C00060E087E00E948C0061E00DC08091100125
:1006D000833071F461E086E00E948C0060E087E086
:1006E0000E948C0060E084E00E948C0061E00FC0FA
:1006F000843081F460E086E00E948C0061E087E055
:100700000E948C0061E084E00E948C0060E083E045
:100710000E948C0080911001853011F0C09310016F
:1007200060E070E08AE00E94150180911401B3013D
:10073000681B710989E00E9415012114310409F434
:10074000CECE0E940000C1CE8FB7F89440911A011E
:1007500050911B0160911C0170911D018FBF089584
:10076000EE0FFF1F0590F491E02D09940E942A04DA
:1007700088F09F5798F0B92F9927B751B0F0E1F062
:10078000660F771F881F991F1AF0BA95C9F714C012
:10079000B13091F00E944404B1E008950C944404F7
:1007A000672F782F8827B85F39F0B93FCCF386954B
:1007B00077956795B395D9F73EF4909580957095A8
:1007C00061957F4F8F4F9F4F0895E89409C097FB25
:1007D0003EF490958095709561957F4F8F4F9F4F18
:1007E0009923A9F0F92F96E9BB279395F69587955C
:1007F00077956795B795F111F8CFFAF4BB0F11F41F
:1008000060FF1BC06F5F7F4F8F4F9F4F16C08823C5
:1008100011F096E911C0772321F09EE8872F762FFB
:1008200005C0662371F096E8862F70E060E02AF03C
:100830009A95660F771F881FDAF7880F9695879528
:1008400097F9089557FD9058440F551F59F05F3F91
:1008500071F04795880F97FB991F61F09F3F79F0E2
:1008600087950895121613061406551FF2CF469564
:10087000F1DF08C0161617061806991FF1CF8695E6
:100880007105610508940895E894BB2766277727CA
:10089000CB0197F908950E945E040C94CF040E9446
:1008A000C10438F00E94C80420F0952311F00C9484
:1008B000B8040C94BE0411240C9445040E94220434
:1008C00070F3959FC1F3950F50E0551F629FF001A3
:1008D000729FBB27F00DB11D639FAA27F00DB11DBC
:1008E000AA1F649F6627B00DA11D661F829F222745
:1008F000B00DA11D621F739FB00DA11D621F839FCC
:10090000A00D611D221F749F3327A00D611D231FA1
:10091000849F600D211D822F762F6A2F11249F57EF
:1009200050409AF0F1F088234AF0EE0FFF1FBB1FF2
:10093000661F771F881F91505040A9F79E3F5105B1
:1009400080F00C94B8040C9445045F3FE4F3983EA7
:10095000D4F3869577956795B795F795E7959F5F5B
:10096000C1F7FE2B880F911D9695879597F90895ED
:1009700097F99F6780E870E060E008959FEF80EC52
:10098000089500240A9416161706180609060895F5
:1009900000240A9412161306140605060895092E5B
:1009A0000394000C11F4882352F0BB0F40F4BF2BCA
:1009B00011F460FF04C06F5F7F4F8F4F9F4F08950A
:0409C000F894FFCFD9
:0C09C4000F15100E01020D0500130C08A9
:00000001FF
